S00C0000434F54532E73726563DF
S11300000C942A000C94F1040C9447000C944700BF
S11300100C9447000C9447000C9447000C940E0673
S11300200C9447000C9476060C949D050C9443059F
S11300300C9447000C94D9060C9447000C94470088
S11300400C941A050C9447000C9447000C94470038
S11300500C94470011241FBECFE5D8E0DEBFCDBF0E
S113006011E0A0E6B0E0ECEAFFE002C005900D92DA
S1130070A63CB107D9F722E0A6ECB1E001C01D927D
S1130080A033B207E1F70E9449000C94D4070C9402
S113009000000E9430020E945002FDCF1092C7015E
S11300A013C0282F30E0F901E056FF4F4081F901D9
S11300B0E653FE4F9081491721F081E08093C801F7
S11300C008958F5F8093C7018091C701843048F3FE
S11300D0089560E080E00E94D40388EB90E00E94E1
S11300E0BD0380E00E94620381E00E94620360E03D
S11300F081E00E94D40384EC90E00E94BD032FEFC2
S113010087EA91E6215080409040E1F700C000006A
S11301100E94D00380ED90E00E94BD0360E081E086
S11301200E94D4038CED90E00E94BD0383E00E9402
S113013062032FEF87EA91E6215080409040E1F777
S113014000C000000E94D0038BEE90E00E94BD032B
S113015060E081E00E94D4038BEF90E00E94BD0335
S11301602FEF87EA91E6215080409040E1F700C0EC
S113017000000E94D003089560E080E00E94D40350
S113018089E091E00E94BD0360E081E00E94D40315
S113019087E191E00E94BD0386EC91E00E94680231
S11301A00E94810204C00E9472028823E1F38091BC
S11301B0C60181538230B8F70E9475020E94D003B1
S11301C008950E9481021092C7011EC00E9472020B
S11301D08823E1F38091CE0190ED980F9A3050F48A
S11301E0E091C701F0E0E653FE4F80838AE20E946B
S11301F0620305C08091C70181508093C70180913B
S1130200C7018F5F8093C7018091C7018430F0F2EA
S11302100E94750208950E9481021092C7011EC0B7
S11302200E9472028823E1F38091CE0190ED980F31
S11302309A3050F4E091C701F0E0E056FF4F80831C
S11302408AE20E94620305C08091C70181508093B5
S1130250C7018091C7018F5F8093C7018091C70157
S11302608430F0F20E94750208951092C8010E9431
S1130270D00361E088E00E94160488E291E00E94C5
S1130280BD0360E081E00E94D40389E391E00E9411
S1130290BD032FEF89E79FE3215080409040E1F7B1
S11302A000C0000060E088E00E9416040E94D003B1
S11302B008950E94D00388E291E00E94BD0360E0AB
S11302C081E00E94D40389E491E00E94BD0361E0CF
S11302D088E00E9416040E9485022FEF8FE493ECBD
S11302E0215080409040E1F700C0000060E088E0C9
S11302F00E9416040E948A0282E08093C90110922F
S1130300C8010E94D00308951092C9010E94D0032D
S113031061E089E00E9416048AE591E00E94BD0331
S113032082E00E9462038AE50E941C042FEF87EB9F
S113033098E8215080409040E1F700C0000080E040
S11303400E941C0460E089E00E9416040E94D0030D
S1130350089560E080E00E94D40389E691E00E9461
S1130360BD0365E081E00E94D4038EEC91E00E941D
S113037068020E94E1000E944E008091C801813011
S113038069F48091C9018F5F8093C901833019F4A6
S11303900E94590107C00E94350104C00E948401D3
S11303A01092C6010E94D003089560E080E00E948C
S11303B0D40386E791E00E94BD0365E081E00E94DA
S11303C0D4030E940B0124E040EA50E060E080E5A1
S11303D00E9492020E94D00386E891E00E94BD032D
S11303E060E081E00E94D40384E991E00E94BD03AF
S11303F02FEF8BE69BE6215080409040E1F700C050
S11304000000089560E080E00E94D40385EA91E052
S11304100E94BD0365E081E00E94D4038EEC91E06C
S11304200E9468020E94E1000E944E008091C8016F
S1130430813069F48091C9018F5F8093C901833051
S113044019F40E94590109C00E94350106C00E9496
S1130450D0030E94D5011092C6010E94D0030895D2
S11304600E9402070E944C030E9479028EEC91E0E4
S11304700E9468020E9419040E948F028FE39CE983
S11304800197F1F700C0000024E040EA50E060E08A
S113049080E50E94B6020E94EC030E946900089560
S11304A08091C601811103C00E94BC00089582336B
S11304B019F40E94A9010895813311F40E940202E3
S11304C008958091CF019091D0010E949C070895D6
S11304D09093D0018093CF0161E672E08CE00E949A
S11304E0E80408950E94930708958AB18F7E8AB91B
S11304F008950E94810781E00E94DC040E94750235
S113050008958AB180618AB9089561E085E10E9405
S11305102804089560E085E10E94280408950E945B
S11305207A040895FF920F931F93CF93DF93F82ECD
S1130530C62F8A01D22F0E948A048F2D0E949D0407
S11305408C2F0E94B804C0E007C0F801EC0FF11D25
S113055080810E94B804CF5FCD17B8F30E94D904FC
S1130560DF91CF911F910F91FF900895FF920F9308
S11305701F93CF93DF93C82FF62E8A01D22F0E94A8
S11305808A048C2F0E949D048F2D0E94B8040E941F
S113059093048C2F0E94A904C0E016C02C2F30E0D5
S11305A08D2F90E001972817390739F40E94C3046E
S11305B0F801EC0FF11D808306C00E94CE04F801FF
S11305C0EC0FF11D8083CF5FCD1740F30E94D90457
S11305D0DF91CF911F910F91FF900895CF93C82F72
S11305E060E081E00E94280460E082E00E94280428
S11305F0C4FB662760F983E00E942804C5FB6627D4
S113060060F984E00E942804C6FB662760F985E04F
S11306100E9428046C2F661F6627661F86E00E94CE
S1130620280461E082E00E9428048FE99FE001979A
S1130630F1F700C0000060E082E00E9428046C2F03
S1130640617083E00E942804C1FB662760F984E09E
S11306500E942804C2FB662760F985E00E942804F2
S1130660C3FB662760F986E00E94280461E082E00B
S11306700E9428048FE99FE00197F1F700C0000071
S113068060E082E00E9428048FE19EE40197F1F784
S113069000C00000CF91089583E30E94EE0282E33C
S11306A00E94EE0288E20E94EE028CE00E94EE02BA
S11306B081E00E94EE0286E00E94EE0282E00E9447
S11306C0EE0208951F93CF93DF931F92CDB7DEB749
S11306D0182F198261E081E00E94280460E082E022
S11306E00E942804BE016F5F7F4F80E00E946A046D
S11306F0612F6695687789818778682B80E00E94EE
S11307005C0461E082E00E9428048FE99FE0019785
S1130710F1F700C0000060E082E00E942804BE01FE
S11307206F5F7F4F80E00E946A04812F90E0880F02
S1130730991F880F991F880F991F69816778887797
S1130740682B80E00E945C0461E082E00E9428043F
S11307508FE99FE00197F1F700C0000060E082E0BC
S11307600E9428048FE19EE40197F1F700C0000085
S11307700F90DF91CF911F9108950F931F93CF9303
S11307808C01C0E003C00E946203CF5FF801EC0F4C
S1130790F11D80818111F7CFCF911F910F910895A1
S11307A081E00E94EE020895CF93DF9300D0CDB78D
S11307B0DEB790E8998390EC9A83E1E0F0E0EC0FE7
S11307C0FD1FE80FF11D8081860F0E94EE020F903D
S11307D00F90DF91CF9108950F931F93CF93DF93E1
S11307E0D0E01DC00D2F10E0C8010896880F880FB7
S11307F0880F0E94EE02C0E00FC0F801EE0FFF1F49
S1130800EE0FFF1FEE0FFF1FE05AFF4FEC0FF11D1D
S113081080810E946203CF5FC83078F3DF5FD830F5
S113082008F3DF91CF911F910F9108950E9428043E
S113083008950E944607089599E3899F812D112404
S11308408695869562E370E08B5F0E945707089552
S1130850E82FE695E695E69587706623B9F0613052
S113086051F5F0E0EE0FFF1FEB54FE4F0190F081C5
S1130870E02D408121E030E0B90102C0660F771F0E
S11308808A95E2F7CB01842B80830895F0E0EE0F84
S1130890FF1FEB54FE4F0190F081E02D408121E0D9
S11308A030E0B90102C0660F771F8A95E2F7CB01E9
S11308B08095842380830895869586958695E82F70
S11308C0F0E0EE0FFF1FEB54FE4F0190F081E02D9E
S11308D060830895869586958695E82FF0E0EE0F5F
S11308E0FF1FEB54FE4F0190F081E02D8081FB014E
S11308F08083089581B18C7F81B98CE080B986B7FB
S1130900806486BF82B18170826082B986B7846058
S113091086BF089584EA86BF06B607FEFDCF81B17F
S11309208830E9F7089584EA86BF06B607FEFDCF4E
S113093081B1887F8031E1F70895880F83B984E815
S113094086BF06B607FEFDCF81B1887F8831E1F707
S1130950089590E0880F991F816083B984E886BF69
S113096006B607FEFDCF81B1887F8034E1F7089594
S113097083B984E886BF06B607FEFDCF81B1887FC0
S11309808832E1F7089584E886BF06B607FEFDCFF6
S113099081B1887F8835E1F783B1089584EC86BFFF
S11309A006B607FEFDCF81B1887F8035E1F783B1BC
S11309B0089584E986BF0895882331F0813039F49D
S11309C08FB780688FBF08958FB78F778FBF0895D3
S11309D0E82FF0E0EE0FFF1FE652FE4F71836083B5
S11309E008951F920F920FB60F9211242F933F93E5
S11309F04F935F936F937F938F939F93AF93BF9323
S1130A00EF93FF93E091DA01F091DB01309709F065
S1130A100995FF91EF91BF91AF919F918F917F9134
S1130A206F915F914F913F912F910F900FBE0F9057
S1130A301F9018951F920F920FB60F9211242F93A7
S1130A403F934F935F936F937F938F939F93AF9352
S1130A50BF93EF93FF93E091F801F091F901309780
S1130A6009F00995FF91EF91BF91AF919F918F91FB
S1130A707F916F915F914F913F912F910F900FBE96
S1130A800F901F9018951F920F920FB60F9211247A
S1130A902F933F934F935F936F937F938F939F9382
S1130AA0AF93BF93EF93FF938091D6019091D701B9
S1130AB0A091D801B091D9010196A11DB11D8093D7
S1130AC0D6019093D701A093D801B093D901409156
S1130AD0020250910302609104027091050284178E
S1130AE09507A607B707C1F41092D6011092D70153
S1130AF01092D8011092D901809122029091230280
S1130B00A0912402B091250282BFE091EE01F09100
S1130B10EF01309709F00995FF91EF91BF91AF91E3
S1130B209F918F917F916F915F914F913F912F9101
S1130B300F900FBE0F901F9018951F920F920FB633
S1130B400F9211242F933F934F935F936F937F934F
S1130B508F939F93AF93BF93EF93FF9380911A0268
S1130B6090911B02A0911C02B0911D02892B8A2B2B
S1130B708B2BE1F18FEF8CBF8091D2019091D30147
S1130B80A091D401B091D50140911A0250911B0259
S1130B9060911C0270911D0284179507A607B70780
S1130BA0C9F4E091EC01F091ED01309709F0099559
S1130BB01092D2011092D3011092D4011092D50157
S1130BC080912A0290912B02A0912C02B0912D02C7
S1130BD08CBF13C00196A11DB11D8093D2019093C7
S1130BE0D301A093D401B093D50107C0E091EC01E7
S1130BF0F091ED01309709F00995FF91EF91BF91C4
S1130C00AF919F918F917F916F915F914F913F91A0
S1130C102F910F900FBE0F901F9018951F920F9257
S1130C200FB60F9211240F931F932F933F934F935B
S1130C305F936F937F938F939F93AF93BF93EF9340
S1130C40FF938091160290911702A0911802B0911F
S1130C501902892B8A2B8B2B79F18FEF9FEF9BBD88
S1130C608ABD8091D101082F10E020E030E040914E
S1130C70160250911702609118027091190204171C
S1130C80150726073707A1F4E091E601F091E70183
S1130C90309709F009951092D10180911E0290912C
S1130CA01F02A0912002B09121029BBD8ABD0BC0FE
S1130CB08F5F8093D10107C0E091E601F091E701D5
S1130CC0309709F00995FF91EF91BF91AF919F91F2
S1130CD08F917F916F915F914F913F912F911F91D0
S1130CE00F910F900FBE0F901F9018951F920F92A7
S1130CF00FB60F9211242F933F934F935F936F93EB
S1130D007F938F939F93AF93BF93EF93FF938091C0
S1130D10260290912702A0912802B09129020196FF
S1130D20A11DB11D8093260290932702A09328024F
S1130D30B093290240912602509127026091280223
S1130D407091290280910E0290910F02A0911002DD
S1130D50B0911102481759076A077B07C9F410922A
S1130D6026021092270210922802109229028091E2
S1130D700A0290910B02A0910C02B0910D029DBD4C
S1130D808CBDE091EA01F091EB01309709F00995EF
S1130D90FF91EF91BF91AF919F918F917F916F914F
S1130DA05F914F913F912F910F900FBE0F901F9025
S1130DB018951F920F920FB60F9211242F933F9301
S1130DC04F935F936F937F938F939F93AF93BF934F
S1130DD0EF93FF93E091F201F091F301309709F062
S1130DE00995FF91EF91BF91AF919F918F917F9161
S1130DF06F915F914F913F912F910F900FBE0F9084
S1130E001F90189520E03EC0E22FF0E0EE0FFF1F88
S1130E10EC55FF4F9081892F86958695869597701E
S1130E2031813323C1F0313061F5E82FF0E0EE0F6A
S1130E30FF1FE354FE4F0190F081E02D308141E02B
S1130E4050E0BA0102C0660F771F9A95E2F7CB0112
S1130E50832B808316C0E82FF0E0EE0FFF1FE354CE
S1130E60FE4F0190F081E02D308141E050E0BA0165
S1130E7002C0660F771F9A95E2F7CB018095832312
S1130E8080832F5F2A3008F4BFCF08958EB5806128
S1130E908EBD8EB588608EBD8FB582608FBD8FB5D7
S1130EA08E7F8FBD8FB58F7380688FBD0895CF936C
S1130EB0C82F20E030E0362F40E050E060E074E2DC
S1130EC084EF90E00E94A30737BD26BD2F5F3F4FFC
S1130ED0C29FC001C39F900D11249C013695279594
S1130EE036952795ABE7B4E10E94C507969587959B
S1130EF001979BBD8ABD8EB5887F84608EBDCF91DE
S1130F00089580B5866880BD8AB180688AB98AB13F
S1130F1080648AB98AB188608AB98AB180618AB9E1
S1130F2087E689B9089580912E02813019F41092D0
S1130F302E02089580E008952CB1FC01208381E005
S1130F4080932E020895A1E21A2EAA1BBB1BFD0159
S1130F500DC0AA1FBB1FEE1FFF1FA217B307E40794
S1130F60F50720F0A21BB30BE40BF50B661F771FEC
S1130F70881F991F1A9469F76095709580959095CC
S1130F809B01AC01BD01CF010895A29FB001B39FA5
S1130F90C001A39F700D811D1124911DB29F700D7E
S10F0FA0811D1124911D0895F894FFCFC9
S1130FAC1F11111911111F1F0E11111F1B1B1F00D3
S1130FBC0E11101F1B1B1F0000000A00110E000055
S1130FCC0000000000000000000000000000000011
S1130FDC0000000000000000000000000000000001
S1130FEC3030303002010101030104010501060116
S1130FFC15011D0109010801204C6F636B20446F1E
S113100C6F72200020202050726F6A656374200078
S113101C202020204D616465204279004D6F686169
S113102C6D6564204F73616D61200020596F7520CC
S113103C68617665204F6E6C792000202033204146
S113104C7474656D7074732000313A536574204E5A
S113105C65772050494E00323A456E7465722059BA
S113106C6F75722050494E002057726F6E67205076
S113107C617373776F72642000202020547279207E
S113108C416761696E20202000332054696D6573BB
S113109C20416C61726D204F6E002057656C636F3C
S11310AC6D6520486F6D65200020456E7465722057
S11310BC50696E203A00456E746572204E65772037
S11310CC50696E203A00202050494E204368616ECE
S11310DC6765640020205375636365737366756C70
S11310EC6C79202000456E746572204F6C6420501E
S11310FC696E203A003B003800350032003A003764
S109110C00340031000074
S9030000FC
